{
  "transactions": [
    {
      "hash": "0x3ead27290633d41ddfce257d456ac8aaf573a8c152fd411cab54c0b1a71df858",
      "transactionType": "CALL",
      "contractName": "LinkToken",
      "contractAddress": "0x779877A7B0D9E8603169DdbD7836e478b4624789",
      "function": "transferAndCall(address,uint256,bytes)",
      "arguments": [
        "0x8103B0A8A00be2DDC778e6e7eaa21791Cd364625",
        "3000000000000000000",
        "0x0000000000000000000000000000000000000000000000000000000000001ec7"
      ],
      "transaction": {
        "type": "0x02",
        "from": "0xe176e8db59dcd3dd19f69386f8d6431de6dd5e50",
        "to": "0x779877a7b0d9e8603169ddbd7836e478b4624789",
        "gas": "0x13fbe",
        "value": "0x0",
        "data": "0x4000aea00000000000000000000000008103b0a8a00be2ddc778e6e7eaa21791cd36462500000000000000000000000000000000000000000000000029a2241af62c0000000000000000000000000000000000000000000000000000000000000000006000000000000000000000000000000000000000000000000000000000000000200000000000000000000000000000000000000000000000000000000000001ec7",
        "nonce": "0xf4",
        "accessList": []
      },
      "additionalContracts": [],
      "isFixedGasLimit": false
    }
  ],
  "receipts": [],
  "libraries": [],
  "pending": [
    "0x3ead27290633d41ddfce257d456ac8aaf573a8c152fd411cab54c0b1a71df858"
  ],
  "returns": {},
  "timestamp": 1702828986,
  "chain": 11155111,
  "multi": false,
  "commit": "5400e78"
}